:020000040800F2
:10000000FC250020AD0100087D1400087D140008C7
:100010007D1400087D1400087D1400087D1400087C
:100020007D1400087D1400087D1400087D1400086C
:100030007D1400087D1400087D1400087D1400085C
:100040007D1400087D1400087D1400087D1400084C
:100050007D1400087D1400087D1400087D1400083C
:100060007D1400087D1400087D1400087D1400082C
:100070007D1400087D1400087D1400087D1400081C
:100080007D1400087D1400087D1400087D1400080C
:100090007D1400087D1400087D1400087D140008FC
:1000A0007D1400087D1400087D1400087D140008EC
:1000B0007D1400087D1400087D1400087D140008DC
:1000C0007D1400087D1400087D1400087D140008CC
:1000D0007D1400087D1400087D1400087D140008BC
:1000E0007D1400087D1400087D1400087D140008AC
:1000F0007D1400087D1400087D1400087D1400089C
:100100007D1400087D1400087D1400087D1400088B
:100110007D1400087D1400087D1400087D1400087B
:100120007D1400087D1400087D1400087D1400086B
:100130007D1400087D1400087D1400087D1400085B
:100140007D1400087D1400087D1400087D1400084B
:100150007D1400087D1400087D1400087D1400083B
:100160007D1400087D1400087D1400087D1400082B
:100170007D1400087D1400087D1400087D1400081B
:100180007D1400087D1400087D1400087D1400080B
:100190007D1400087D1400087D1400087D140008FB
:1001A0007D1400087D1400087D14000800B583B09C
:1001B00000F0E3F900F002FC00F0EAF9412000F061
:1001C000E7FB1A4B009304E0009B1A1D00920022EB
:1001D0001A60009B164A9342F6D3422000F0D8FBE7
:1001E000144B0193144B009307E0009B1A1D0092DF
:1001F000019A111D019112681A60009B0F4A9342E7
:10020000F3D3432000F0C4FB01F092F8442000F047
:10021000BFFB01F043FC462000F0BAFB0D2000F0CC
:10022000B7FB0A2000F0B4FB01F02AFF20060020F3
:10023000FC210020E0450408000000201C060020EE
:1002400082B0164B1B680193019B43F0010301939D
:10025000124A019B1360124B00221A600F4B1B685D
:100260000193019B23F0847323F4803301930B4AA1
:10027000019B13600B4B0C4A1A60084B1B680193DF
:10028000019B23F480230193044A019B1360074BD5
:1002900000221A6000BF02B0704700BF0038024061
:1002A0000838024004380240103000240C38024064
:1002B00082B0094B1B680193019B6FEA53236FEADD
:1002C00043230193019B43F400030193024A019BE2
:1002D000136000BF02B070473038024082B0044B58
:1002E0001B680193024A019B136000BF02B0704774
:1002F0003438024000BF704782B00C4B1B6801933A
:10030000019B43F400330193019B43F48023019349
:10031000019B43F480030193019B43F080530193BD
:10032000024A019B136000BF02B070474038024090
:1003300082B00C4B1B680193019B43F010030193A7
:10034000019B43F400630193019B43F480430193B9
:10035000019B43F080630193024A019B136000BF3D
:1003600002B070474438024082B0724B1B68019360
:10037000019B43F4803301936E4A019B13606E4BE3
:10038000009308E06B4B1B6803F40033002B06D18D
:10039000009B013B0093009B002BF3DC00E000BFBF
:1003A000009B002B40F3C280644B1B680193019BB0
:1003B00043F080530193614A019B1360604B1B68BB
:1003C0000193019B23F440430193019B43F4404379
:1003D00001935B4A019B13605A4B1B680193019B7D
:1003E00023F0F0030193574A019B1360554B1B68A0
:1003F0000193019B23F460430193019B43F4004369
:100400000193504A019B13604E4B1B680193019B63
:1004100023F4E0530193019B43F4A0530193494A11
:10042000019B1360484B0193484A019B1360414B69
:100430001B680193019B43F0807301933D4A019B2C
:10044000136000BF3B4B1B6803F00073002BF9D017
:100450003B4B1B680193019B43F480330193384A63
:10046000019B136000BF3A4B1B6803F48033002BE1
:10047000F9D0334B1B680193019B43F40033019384
:100480002F4A019B136000BF314B1B6803F40033FC
:10049000002BF9D040F2056301932E4A019B1360B3
:1004A000284B1B680193019B23F003030193019BDD
:1004B00043F002030193234A019B136000BF214BC9
:1004C0001B6803F00C03082BF9D1234B1B68019325
:1004D000019B23F07F2323F0C0030193019B43F092
:1004E000CE4343F4D24301931B4A019B13601B4B41
:1004F0001B680193019B23F440330193019B43F458
:1005000000330193154A019B13600A4B1B6801934A
:10051000019B43F080530193064A019B136000BF87
:10052000044B1B6803F00053002BF9D000BF02B04E
:10053000704700BF00380240148219004038024062
:1005400000700040083802400F3640040438024072
:1005500004700040003C0240883802408C38024061
:1005600008B5FFF7A5FEFFF7B9FEFFF7C3FEFFF7DB
:10057000C3FEFFF7DDFE00BF08BD08B5FFF760FE54
:10058000FFF7F2FEFFF7ECFF00BF08BD00BF7047AA
:1005900008B5FFF7FBFF00BF08BD000000B595B030
:1005A0000190019B1B0903F00F030D930D9B082B7A
:1005B00002D96FF015037FE19F4A0D9B52F823305B
:1005C0000C93019B03F00F030B93019B03F4402357
:1005D000B3F5002F17D0B3F5402F17D0B3F5802F08
:1005E00002D000230E9314E0019B03F48073002BD0
:1005F00014BF01230023DBB21946019800F070F903
:1006000001230E9305E002230E9302E003230E93D1
:1006100000BFEFF311830793079BDBB28DF81B300C
:1006200080230593059B83F311889DF81B308DF87B
:100630002B300E9B022B05D1019B1B0B03F00F03EC
:10064000119301E000231193119B002B29D00B9BE8
:10065000072B04D8202310930B9B0F9304E0242333
:1006600010930B9B083B0F930C9A109B13441B6831
:1006700013930F9B9B000F2202FA03F3DB431A46EE
:10068000139B134013930F9B9B00119A02FA03F3E1
:10069000139A134313930C9A109B13441A46139BFB
:1006A00013600C9B1B6813930B9B5B00032202FAE5
:1006B00003F3DB431A46139B134013930B9B5B001E
:1006C0000E9A02FA03F3139A134313930C9B139A93
:1006D0001A60002312930E9B032B0FD0019B03F48F
:1006E0004033B3F5803F03D0B3F5003F03D005E0BE
:1006F0000123129302E00223129300BF0C9B0C33E0
:100700001B6813930B9B5B00032202FA03F3DB438A
:100710001A46139B134013930B9B5B00129A02FA29
:1007200003F3139A134313930C9B0C331A46139B36
:100730001360119B002B29D10B9B072B04D820237E
:1007400010930B9B0F9304E0242310930B9B083B07
:100750000F930C9A109B13441B6813930F9B9B00E1
:100760000F2202FA03F3DB431A46139B1340139341
:100770000F9B9B00119A02FA03F3139A13431393EE
:100780000C9A109B13441A46139B13600E9B012B6B
:1007900002D00E9B022B18D1019B03F44063B3F5EA
:1007A000006F0BD0B3F5406F0BD0B3F5806F02D064
:1007B0000023129308E00123129305E00223129311
:1007C00002E00323129300BF01E0002312930C9B6D
:1007D00008331B6813930B9B5B00032202FA03F39D
:1007E000DB431A46139B134013930B9B5B00129A37
:1007F00002FA03F3139A134313930C9B08331A461C
:10080000139B13600C9B04331B68139301220B9BF7
:1008100002FA03F312930E9B012B02D00E9B022BC4
:100820000CD1019B03F40073002B07D0139A129B89
:100830001343139307E000BF14BC0308129BDB4370
:10084000139A134013930C9B04331A46139B1360A3
:100850000E9B012B25D0019B03F48073002B20D02D
:100860000B9B03F00C02164B13440993099B1B6866
:1008700013930B9B9B0003F00C0308930F22089B20
:1008800002FA03F3DB431A46139B134013930D9AAA
:10089000089B02FA03F3139A13431393099B139AC9
:1008A0001A609DF82B308DF813309DF813300393A8
:1008B000039B83F311880023184615B05DF804FBF1
:1008C0000838014000B583B00190019BDBB2019371
:1008D0000198FFF763FE0346184603B05DF804FB7A
:1008E00086B001900B468DF80330019B1B0903F085
:1008F0000F030493049B082B1DD8104A049B52F845
:1009000023300393019B03F00F0302939DF8033000
:10091000002B05D00122029B02FA03F3059305E0A8
:10092000029B1033012202FA03F30593039B183351
:100930001A46059B136000BF06B0704714BC03083D
:1009400086B00190019B1B0903F00F030593059BE3
:10095000082B16D80D4A059B52F823300493019BAF
:1009600003F00F030393049B10331B680121039AC8
:1009700001FA02F21340002B14BF01230023DBB263
:1009800000E00023184606B0704700BF14BC0308FF
:1009900082B003468DF8073000BF064B1B6803F09A
:1009A0004003002BF9D0044A9DF80730136000BFC4
:1009B00002B07047001001400410014000B583B040
:1009C00010220021264800F029FD2648FFF7E6FD09
:1009D0002548FFF7E3FD254B1B680193019B23F49A
:1009E00000530193214A019B1360214B1B68019323
:1009F000019B23F47D530193019B43F40053019326
:100A00001B4A019B1360194B1B680193019B23F444
:100A1000BB5323F01C030193144A019B1360154B35
:100A20001B680193019B23F4E06323F0010301930E
:100A3000104A019B1360104B40F20D321A600B4BB1
:100A40001B680193019B43F4005343F00C03019393
:100A5000064A019B136000BF03B05DF804FB00BFB2
:100A600044380240097C09000A7C09000C1001404E
:100A700010100140141001400810014082B0019094
:100A80000091019BD3F8B420009B13441B681846C7
:100A900002B0704784B0039002910192039BD3F897
:100AA000B420029B13441A46019B136000BF04B09C
:100AB000704700B585B001900B46ADF80230019B40
:100AC000BDF80220A3F8A0200C210198FFF7D6FF63
:100AD0000390039B23F4D0730393BDF8023003F417
:100AE000D073039A13430393039A0C210198FFF7E1
:100AF000D1FF14210198FFF7C1FF0390039B23F05E
:100B000001030393BDF8023003F00103039A13437A
:100B10000393039A14210198FFF7BCFF00BF05B0AF
:100B20005DF804FB00B589B001900B46ADF80230CA
:100B3000EFF311830593059BDBB28DF8133080230F
:100B40000393039B83F311889DF813308DF81F30B6
:100B5000BDF8023019460198FFF7ABFF9DF81F3032
:100B60008DF81E309DF81E300693069B83F3118886
:100B700000BF09B05DF804FB00B58BB00190009197
:100B8000EFF311830693069BDBB28DF817308023B9
:100B90000493049B83F311889DF817308DF8273058
:100BA000009B002B17D00C210198FFF767FF0890DE
:100BB00014210198FFF762FF0790089B9BB203F492
:100BC000D0739AB2079B9BB203F001039BB213430D
:100BD0009AB2009B1A8000210198FFF76AFF9DF8E6
:100BE00027308DF80F309DF80F300293029B83F36E
:100BF000118800BF0BB05DF804FB00B589B001900F
:100C0000019BD3F8883004930C210498FFF736FF3A
:100C10000590049BD3F8B020049BD3F8A8305B0860
:100C2000B2FBF3F30393039B5B090793079B5B0101
:100C3000039AD31A01335B080693079B002B0ED14E
:100C4000059B43F400430593039B1B090793079BF4
:100C50001B01039AD31A01335B08069303E0059B3B
:100C600023F400430593079B1B010293029A069B02
:100C700013430293059A0C210498FFF70BFF029A85
:100C800008210498FFF706FF059B23F4B053059352
:100C9000049B93F8A530012B04D1059B43F4C0635A
:100CA000059308E0049B93F8A530022B03D1059B24
:100CB00043F480630593049B93F8A630092B09D075
:100CC000049B93F8A630082B08D1049B93F8A53019
:100CD000002B03D0059B43F480530593059A0C2108
:100CE0000498FFF7D7FE10210498FFF7C7FE059080
:100CF000059B23F440530593049B93F8A730002BE6
:100D000003D0059B43F400530593059A10210498E2
:100D1000FFF7C0FE14210498FFF7B0FE0590059B75
:100D200023F440730593059A14210498FFF7B2FE4B
:100D300000BF09B05DF804FB00B587B001900B4619
:100D40008DF80330019BD3F888300393039BD3F8CD
:100D5000B430164A934211D0154A934203D0154A33
:100D6000934205D01FE010230593134B04930BE02F
:100D70004FF400330593114B049305E04FF48023A7
:100D800005930E4B049300BF9DF80330002B05D054
:100D9000059A0021049800F041FB04E00022059927
:100DA000049800F03BFB07B05DF804FB00480040EE
:100DB00000100140004400404438024040380240E6
:100DC00000B585B00190019BD3F8883002930121D2
:100DD0000198FFF7B1FF029BD3F8B8301846FFF730
:100DE000DDFB029BD3F8BC301846FFF7D7FB102180
:100DF0000298FFF743FE0390039B23F47D53039374
:100E0000029B93F8A730002B03D0039B43F40053BD
:100E10000393039A10210298FFF73CFE0C210298DD
:100E2000FFF72CFE0390039B23F4BE730393039AF6
:100E30000C210298FFF72EFE14210298FFF71EFEE8
:100E40000390039B23F4E06323F001030393039ACD
:100E500014210298FFF71EFE0198FFF7CEFE0C2129
:100E60000298FFF70BFE0390039B43F4005343F0FB
:100E70000C030393039A0C210298FFF70BFE029BCD
:100E80000022A3F8A020029B012283F8A4200023C3
:100E9000184605B05DF804FB00B585B00190019BD4
:100EA000D3F888300393039B002283F8A420002109
:100EB0000398FFF761FE00210198FFF73DFF0C2129
:100EC0000398FFF7DBFD0290029B23F4005323F00D
:100ED0000C030293029A0C210398FFF7DBFD039B9E
:100EE000D3F8B8301846FFF7EDFC039BD3F8BC30BD
:100EF0001846FFF7E7FC00BF05B05DF804FB0000F3
:100F000000B585B00190019BD3F888300393039B13
:100F100093F8AC30039A0949184601F0DBFA0290C5
:100F2000029B002B05D1039B93F8AC30184600F0D0
:100F30006BFC029B184605B05DF804FB730F0008BC
:100F400000B585B00190019BD3F888300393039BD3
:100F500093F8AC30184600F033FC039B93F8AC30A8
:100F600000220021184601F0B5FA00BF05B05DF877
:100F700004FB00B589B0039002910192019B059397
:100F800001238DF81B300023079344E000238DF8E4
:100F90001B3000210598FFF771FD03469AB2059BAF
:100FA000A3F8A220059BB3F8A23003F02003002B86
:100FB0000ED0059BB3F8A03003F02003002B07D020
:100FC000059B18460AF093FE01238DF81B300AE0BA
:100FD000059BB3F8A23003F00E03002B03D00421CD
:100FE0000598FFF74BFD059BB3F8A23003F0800393
:100FF000002B0DD0059BB3F8A03003F08003002B2D
:1010000006D0059B18460AF013FE01238DF81B300D
:10101000079B01330793079BFF2B03DC9DF81B30D5
:10102000002BB3D10023184609B05DF804FB00B5CE
:101030008BB0039002910192039B9B680893089BDD
:101040009B690793079BD3F8883006930023099385
:10105000029B40F20112934203D0B3F5817F32D05C
:1010600072E0019B0593059B002B03D16FF01503E4
:1010700009936DE0069B93F8A530002B02D04FF446
:10108000807200E00022069B93F8A530012B02D16C
:101090004FF4007300E000231A43069B93F8A73037
:1010A000002B01D0402300E00023134343F0300322
:1010B0001A46059B9A60069BD3F8A83019460598F6
:1010C0000EF01AFB44E0019B0493049B002B03D118
:1010D0006FF0150309933BE0049B9B6803F030031A
:1010E000302B03D06FF01503099331E0049B9B680C
:1010F00003F48073002B0CD0049B9B6803F40073F3
:10110000002B01D0012200E00222069B83F8A520DB
:1011100003E0069B002283F8A520049B9B6803F054
:101120004003002B14BF01230023DAB2069B83F88F
:10113000A72004980EF02AFB0246069BC3F8A820BD
:101140000798FFF75AFD03E06FF01803099300BFFB
:10115000099B18460BB05DF804FB00B585B0019003
:101160000091019BD3F88830039304210398FFF783
:1011700085FC0290039BB3F8A2301B041A46029B25
:101180001A43009B1A60039B0022A3F8A220029B33
:10119000DBB2184605B05DF804FB00B58BB00190DA
:1011A0000B468DF80330019BD3F888300893EFF39A
:1011B00011830693069BDBB28DF8173080230493CE
:1011C000049B83F311889DF817308DF81F30089B1E
:1011D000B3F8A030ADF826309DF80330002B06D0D0
:1011E000BDF8263043F02003ADF8263007E0BDF807
:1011F000263023F4907323F00103ADF82630BDF8B8
:10120000263019460898FFF78DFC9DF81F308DF8A1
:101210000F309DF80F300293029B83F3118800BFBB
:101220000BB05DF804FB00B585B00190019BD3F8CD
:101230008830039300210398FFF720FC034603F056
:101240002003002B14BF01230023DBB2184605B096
:101250005DF804FB00B585B001900091019BD3F8C7
:1012600088300393009B1A4604210398FFF712FC71
:1012700000BF05B05DF804FB00B58BB001900B46D4
:101280008DF80330019BD3F888300993EFF3118375
:101290000793079BDBB28DF81B3080230593059BDA
:1012A00083F311889DF81B308DF823309DF80330AF
:1012B000002B0DD0099BB3F8A03043F08003ADF8AC
:1012C0002030BDF8203019460998FFF72BFC09E0C3
:1012D000099BB3F8A03023F080039BB2194609980C
:1012E000FFF720FC9DF823308DF813309DF8133064
:1012F0000393039B83F3118800BF0BB05DF804FBDD
:1013000000B585B00190019BD3F88830039300218C
:101310000398FFF7B3FB034603F08003002B14BFD1
:1013200001230023DBB2184605B05DF804FB000082
:1013300000B583B00023019310E00E4A019B52F8E0
:101340002330002B07D00B4A019B52F82330002199
:101350001846FFF711FC019B01330193019B072BFA
:10136000EBD9054B1846FFF72BFD00BF03B05DF826
:1013700004FB00BF68BC03080000002000B587B074
:1013800000230493204B194620480AF08DFB1E4B86
:1013900019461F480AF088FB012304936B4610226C
:1013A0001C4918460EF0F9F80023059325E01A4A67
:1013B000059B52F82330002B19D0174A059B52F891
:1013C00023309B78002B14D1049B5A1C0492DBB26F
:1013D0003033DBB28DF809300F4A059B52F82330C9
:1013E0001A466B46114618460AF05EFB02E000BF43
:1013F00000E000BF059B01330593059B072BD6D961
:1014000000BF07B05DF804FB0000002088BC0308A3
:1014100098BC0308A4BC030868BC03088CB0039004
:1014200002910192EFF311830793079BDBB28DF8D2
:101430001B3080230593059B83F311889DF81B3097
:101440008DF82F30039B1B680A93029BDB430A9A9B
:1014500013400A930A9A019B13430A93039B0A9A27
:101460001A609DF82F308DF827309DF827300893AB
:10147000089B83F3118800BF0CB07047EFF3058021
:101480001EF0040F02D0EFF309818D466A4602F187
:101490002002EFF311832DE9FC4F6946DFF81CD0E1
:1014A00000F0FEF9B0E8FC4F1EF0040F0CBF80F313
:1014B000088880F3098883F311887047280C00207E
:1014C00000B589B0039002910192EFF31183079365
:1014D000079BDBB28DF81B3080230593059B83F3BC
:1014E0001188054A054903200EF0F4F8044A00214A
:1014F00000200CF03FF800BF40BD0308B0BC03085B
:10150000CCBC030800B589B0039002910192EFF3BF
:1015100011830793079BDBB28DF81B308023059363
:10152000059B83F31188054A054903200EF0D2F884
:10153000044A002100200CF01DF800BF4CBD030838
:10154000D4BC0308CCBC030800B589B00390029159
:101550000192EFF311830793079BDBB28DF81B30E9
:1015600080230593059B83F31188054A05490320D1
:101570000EF0B0F8044A002100200BF0FBFF00BF82
:101580005CBD0308F4BC0308CCBC030800B589B0FB
:10159000039002910192EFF311830793079BDBB253
:1015A0008DF81B3080230593059B83F31188054A32
:1015B000054903200EF08EF8044A002100200BF0AC
:1015C000D9FF00BF70BD03081CBD0308CCBC0308D5
:1015D00084B00190094B1B680393039B23F07F4366
:1015E0000393019B1B061A46039B13430393034A71
:1015F000039B136000BF04B0704700BF1CED00E008
:1016000086B00390029101920093039B0F2B15DD8E
:10161000039B103B0593059B5B1140339B001A46CF
:10162000009B134403F1E022029B1A60059B03F028
:101630001F0301229A40019B1A6027E0029B154A72
:101640001A60039B042B04D1019B4FF480321A6073
:101650001CE0039B052B04D1019B4FF400321A6060
:1016600014E0039B062B04D1019B4FF480221A60E7
:101670000CE0039B0F2B06D1029B074A1A60019BCB
:1016800001221A6002E04FF0FF3300E00023184609
:1016900006B0704724ED00E010E000E000B585B032
:1016A000002301930CE0019B5B1160339B0003F16D
:1016B000E0231A464FF0FF331360019B2033019360
:1016C000019B5A2BEFDD2E4B2E4A1A602E4B4FF00A
:1016D00080321A602D4B4FF080321A602C4B4FF045
:1016E00080321A602B4B1B680133DB0002932A4BBC
:1016F000039306E0039B4FF080321A60039B043390
:101700000393029B5A1E0292002BF3D1002223491D
:101710000B2000F0DFFE00222149032000F0DAFE5A
:101720007020FFF755FF00221E49022000F0D2FE74
:1017300000221D49042000F0CDFE00221B49052097
:1017400000F0C8FE00221A49062000F0C3FE002265
:1017500018490E2000F0BEFE002217490C2000F0B0
:10176000B9FE00221549002000F0B4FEF0230093DA
:10177000009B83F3118862B600BF05B05DF804FBDF
:1017800008ED00E00000000818ED00E01CED00E0AE
:1017900020ED00E004E000E000E400E0A51900080E
:1017A00005190008C11400085D190008591800083F
:1017B000F919000805150008491500088D150008DD
:1017C00000B587B0019003AA04A980230198FFF710
:1017D00017FF0346002B13D1019B0F2B04DD049B45
:1017E0001A46039B13600BE0049B1B680593039B45
:1017F000DB43059A13400593049B1A46059B13602F
:1018000000BF07B05DF804FB00B587B0019003AAE4
:1018100004A900230198FFF7F3FE0346002B12D121
:10182000019B0F2B04DD049B1A46039B13600AE007
:10183000049B1B680593039B059A13430593049B24
:101840001A46059B136000BF07B05DF804FB82B029
:10185000019000BF02B0704700B589B003900291BB
:1018600001920D4B1B680793EFF311830693069BC0
:10187000DBB28DF8173080230493049B83F3118827
:10188000029B064A0021002001F082F8002318463E
:1018900009B05DF804FB00BF28ED00E080BD03083F
:1018A00000B583B001900091042000F0D5F9144BED
:1018B0001B68002B04D1124A009B13600023009385
:1018C0000198FFF7C4FF0E4B1B681946019800F002
:1018D00049FE009B002B0AD1094B1A68009B9A42D3
:1018E00002D0074B1B680093054B00221A600420AE
:1018F00000F0C4F9009B184603B05DF804FB00BF7C
:10190000280C002000B58BB0039002910192104B7F
:101910001B6809930F4B1B680593099B03F0020397
:10192000002BEFF311830893089BDBB28DF81F3077
:1019300080230693069B83F31188029B064A0021AD
:10194000002001F025F8002318460BB05DF804FBD9
:101950002CED00E028ED00E088BD030800B589B05B
:101960000390029101920D4B1B680793EFF31183D3
:101970000693069BDBB28DF8173080230493049BFB
:1019800083F31188029B064A0021002001F000F831
:101990000023184609B05DF804FB00BF28ED00E005
:1019A00090BD030886B0039002910192029B0593BB
:1019B000059BDB6A0493049B012B02D0022B07D00A
:1019C00013E0059B30331B681A460A4B1A600CE083
:1019D000059B30331B681A46059B1360059B343307
:1019E0001B681A46034B1A6000BF0023184606B056
:1019F000704700BF280C002000B589B00390029109
:101A000001920D4B1B680793EFF311830693069B1E
:101A1000DBB28DF8173080230493049B83F3118885
:101A2000029B064A0021002000F0B2FF0023184666
:101A300009B05DF804FB00BF28ED00E098BD030885
:101A400008B500F021F8FFF799FC022000F004F936
:101A500000BF08BD00B583B001900091012000F0E7
:101A6000FBF8084B1B681A46019B1A60054B1B6864
:101A7000C3F1005303F54033009A136000BF03B075
:101A80005DF804FB10BC030808B54FF480314FF03B
:101A900080500EF0EFF800BF08BD000008B500F060
:101AA000CDF800F0FFF8034907200DF013FE00BF4A
:101AB00008BD00BFA0BD030808B500F003F800BFD3
:101AC00008BD000000B585B000F088F9022000F0E4
:101AD00081FA00F00FFA7E230093274B274A28490A
:101AE00007200DF0F7FD002300930023254A264927
:101AF00000201DF06DFB0390039B002B06DA039A78
:101B0000224903200DF0E6FD039B31E04FF4A07362
:101B1000194A1A491A480CF038FA002100200BF033
:101B200049F903904FF4A273134A144914480CF076
:101B30002CFA039B002B0BDA40F247130E4A0F4995
:101B40000F480CF022FA039A114903200DF0C2FD50
:101B500000F046FA0390039B002B08D04FF4D87393
:101B60000C4A0D4907200DF0B5FD039B00E0002352
:101B7000184605B05DF804FB50BE0308B8BD030865
:101B8000D0BD0308E0BD0308E8BD0308F0BD0308AD
:101B900020BE030860BE030844BE030800B583B03E
:101BA0000190019B03F00103002B03D000210848A2
:101BB000FEF796FE019B03F00203002B03D00021E9
:101BC0000448FEF78DFE00BF03B05DF804FB00BFC4
:101BD0006D0804006E08040000B583B00190019BFD
:101BE00003F00103002B03D001210848FEF778FE23
:101BF000019B03F00203002B03D001210448FEF7F0
:101C00006FFE00BF03B05DF804FB00BF6D08040069
:101C10006E08040000B583B00190019B1B0903F01E
:101C20000F031846FFF7BAFF019B03F00F03184696
:101C3000FFF7D2FF00BF03B05DF804FB08B504480E
:101C4000FEF7ACFC0348FEF7A9FC00BF08BD00BFCF
:101C50006D0804006E08040000B583B00190064AC8
:101C6000019B32F81330DBB21846FFF7D3FF00BFF9
:101C700003B05DF804FB00BF70BE030800B583B07D
:101C80000190074A019B32F813301B0A9BB2DBB26A
:101C90001846FFF7BFFF00BF03B05DF804FB00BFAD
:101CA00070BE030800B585B00023039309E01F4A06
:101CB000039B52F823301846FEF770FC039B013358
:101CC0000393039B252BF2D911F0C0F942F6D413EC
:101CD00002930299012011F001FA0299022011F0F9
:101CE000FDF9134B02930299022011F0D7F9092054
:101CF00011F016FA0023019302E0019B01330193D6
:101D0000019B42F20F729342F7DD0A2011F008FAAC
:101D10006B2011F005FA074811F002FA40F2AB20EF
:101D200011F09EF900BF05B05DF804FB80BE03080A
:101D3000727422020C62040000B583B00190019B12
:101D4000022B0AD0032B0DD0012B01D000BF0DE0D8
:101D50000848FEF7F5FD034608E00748FEF7F0FDEA
:101D6000034603E00548FEF7EBFD0346184603B0C3
:101D70005DF804FB7A0804007B0804007C0804007A
:101D800000B583B001900B468DF80330019B022B08
:101D90000BD0032B10D0012B00D014E09DF80330A2
:101DA00019460B48FEF79CFD0DE09DF803301946DF
:101DB0000848FEF795FD06E09DF8033019460648F1
:101DC000FEF78EFD00BF00BF03B05DF804FB00BF4F
:101DD0007A0804007B0804007C08040008B5074862
:101DE000FEF7DCFB0648FEF7D9FB0648FEF7D6FBFC
:101DF000054906480BF044F900BF08BD7A08040005
:101E00007B0804007C0804004002002018BF03087F
:101E100000B587B00590049103920C4A049B1360AF
:101E20000B4A039B1360094B1B68094A1268019215
:101E3000009300230122002140F63C000FF00EF831
:101E40000023184607B05DF804FB00BF2C0C0020EF
:101E5000300C002000B58BB003900B468DF80B3092
:101E6000EFF311830893089BDBB28DF81F308023BA
:101E70000693069B83F311889DF81F308DF8273059
:101E80009DF80B30002B0DD0134B1B68134A1268C2
:101E90000192009300230122002140F63C000EF045
:101EA000DDFF0AE0002301930023009300230022BA
:101EB000002140F63C000EF0D1FF9DF827308DF850
:101EC00017309DF817300493049B83F3118800BFEB
:101ED0000BB05DF804FB00BF2C0C0020300C002080
:101EE00082B001900B468DF803300023184602B0F3
:101EF0007047000010B588B02A4B02AC0FCB07C466
:101F00002370294907200DF0E5FB022011F022F88B
:101F10000790079B002B0AD1244907200DF0DAFB1C
:101F20000223234A234903200DF0D4FB16E00221AB
:101F3000079806F0CBF90690069B002B0EDA1E4997
:101F400007200DF0C7FB069B00930223184A1B498C
:101F500003200DF0BFFB079811F030F8E823184A72
:101F6000184907200DF0B6FB1748FEF717FB174876
:101F7000FEF714FB01200DF0B3FC01211248FEF71F
:101F8000AFFC01200DF0ACFC40F63C00FEF706FB78
:101F900002A80F4B5D22079906F090FD00BF08B024
:101FA00010BD00BFE8BF030830BF030848BF0308E7
:101FB000F8BF030864BF030890BF0308ACBF030861
:101FC00010C00308DCBF03083D0806003C080600FB
:101FD00024BF030882B0019000BF02B07047000028
:101FE00000B583B05F23234A234907200DF072FB1D
:101FF00000200FF01BFF0246204B1A601F4B1B688E
:10200000002B08D165231B4A1B4907200DF062FBFA
:102010006FF012032AE06D23164A174907200DF0CE
:1020200059FB164B1B681946002008F0F1FC019083
:10203000019B002B07D071230E4A0F4907200DF09A
:1020400049FB019B12E081230A4A0B4907200DF04E
:1020500041FB0A4B1B68012118460FF021FF832327
:10206000044A054907200DF035FB0023184603B04C
:102070005DF804FB34C0030828C00308340C0020BA
:1020800000B587B0B04B01221A7000230593A8E079
:10209000059A13465B0113449B00AC4A1344842207
:1020A000002118460DF047FAA849059A13465B012E
:1020B00013449B000B440C33059A1A60A349059AFC
:1020C00013465B0113449B000B441C3303221A701C
:1020D0009E49059A13465B0113449B000B4414333D
:1020E0009B4A1A609949059A13465B0113449B0069
:1020F0000B441833964A1A609449059A13465B01BB
:1021000013449B000B441E3306221A80914A059B00
:10211000914942F833108D49059A13465B011344E7
:102120009B000B441C331B788C4ADB0013441B7947
:1021300003F00803002B17D08449059A13465B016E
:1021400013449B000B44443319688048059A134696
:102150005B0113449B0003441C331B781A467F4BDE
:1021600053F832300B440CE07849059A13465B0172
:1021700013449B000B441C331B781A46774B53F8CF
:1021800032300493059A13465B0113449B006F4A57
:1021900013440393039B00225A60049B1A68039B19
:1021A0001A60049B1B68002B06D1049B039A1A60DB
:1021B000049B039A5A6006E0049B1B68039A5A60CA
:1021C000049B039A1A60059A13465B0113449B0013
:1021D0005E4A1A446249059B41F82320059B01335E
:1021E0000593059B002B7FF753AF574B02221A70C4
:1021F0006A4601AB11461846FFF72CFC019B009A7A
:10220000114618460DF022FD564B04221A6004E0D8
:10221000544B1B685B00534A1360524B1B68012BE5
:10222000F6DD504B1B689B0018460DF067FD03461A
:102230001A464D4B1A600023059361E0494B1B6819
:102240005A1E059B13400293474B1A68029B9B0042
:10225000D118059A13465B0113449B003B4A134473
:102260000B60059A13465B0113449B00374A98188C
:102270003649059A13465B0113449B000B441E33F9
:102280001B88DBB2194602F0C5F83049059A13469F
:102290005B0113449B000B4408331B681B6C059ABD
:1022A000D2002C490A441A61059A13465B01134473
:1022B0009B00264A1344184611F0C8F9059A1346A4
:1022C0005B0113449B00214A1344184601F0E4FDCE
:1022D000059A13465B0113449B001C4A134418469D
:1022E00002F0E8F81949059A13465B0113449B0074
:1022F0000B4408331B6803221A73059B01330593B3
:10230000059B002B9ADD194B00221A600E4B03220D
:102310001A7000F09DFD1AF033F800F0C1F801F0DA
:10232000EFFE01F047FC00F00BFF00F0FBFC00F0BB
:102330000BFDFFF785FB05F0D5FE034B04221A7059
:10234000002305932FE000BF700C0020740C0020C8
:1023500081200008F80C00209CC003084CC0030832
:10236000400C00206C0C0020680C0020640C002045
:10237000059B002B0ADD059A13465B0113449B0065
:10238000114A1344184602F0FDF909E0059A134674
:102390005B0113449B000C4A1344184602F0CCF92D
:1023A000059B01330593059B002BE1DD074B0522BF
:1023B0001A7000F063F8054B06221A7000F078FDE1
:1023C00010F02AFEFCE700BF740C0020700C002007
:1023D00008B501F06DFE01F07FFE00BF08BD0000F2
:1023E00000B58BB000230893FFF766FB03AB1846DC
:1023F0000BF092FD64238DF80D304FF400630693CB
:1024000003AA0023019308AB00931346002204495A
:10241000044801F0A2FB099000BF0BB05DF804FB7B
:1024200095380108A8C0030800B583B00190009159
:10243000FFF7D6FF0023184603B05DF804FB000049
:1024400000B587B001F06CFE0346039300230293AE
:10245000084B01934FF4006300930023F022022104
:10246000054800F0C1FE0346059300BF07B05DF8C4
:1024700004FB00BF29240008B4C0030808B50122EA
:102480000549064801F0E0FEFFF7A2FFFFF7D8FF7D
:102490000023184608BD00BFC0C00308C4C003081D
:1024A00000B583B00023019307E0084A019B084967
:1024B00042F83310019B01330193019B6A2BF4DD39
:1024C000FFF7ECF800BF03B05DF804FB000D00203F
:1024D000CD25000800B58DB00390029101926FF0F8
:1024E00015030B93039B6A2B32D8039B0A93EFF3DC
:1024F00011830893089BDBB28DF81F30802306936D
:10250000069B83F311889DF81F308DF82730029BBE
:10251000002B06D10398FFF753F9104B02930023C9
:1025200001930F490A9B029A41F833200C4A0A9BF7
:10253000DB001344019A5A609DF827308DF817305C
:102540009DF817300493049B83F3118800230B93A9
:102550000B9B18460DB05DF804FB00BFCD250008AD
:10256000000D002000B587B001900091134B05933A
:1025700000230493019B0393019B6A2B10D8039BB8
:102580000F4A52F83330002B0AD0039B0C4A52F802
:1025900033300593039B0A4ADB0013445B680493C2
:1025A000059B049A009901989847064B1B68064AB8
:1025B000136000BF07B05DF804FB00BFCD25000825
:1025C000000D0020380C0020400C002000B589B020
:1025D000039002910192EFF311830793079BDBB203
:1025E0008DF81B3080230593059B83F31188039B93
:1025F000044A054903200DF06DF8044A002100202B
:102600000AF0B8FFE4C00308C8C00308DCC0030830
:1026100082B0064B1B68002B14BF012300238DF8EA
:1026200007309DF80730184602B07047280C00208C
:10263000F0B58FB00B900A910B9B23F01F030D9305
:102640002BE00D9B0C930D9B09930C9B1B680C9A24
:10265000043212680C99083109680C980C30006833
:102660000C9C103424680C9D14352D680C9E183673
:1026700036680C9F1C373F680797069605950494AB
:102680000390029101920093099B084A0849002097
:102690000DF020F80D9B20330D930A9B23F01F02B1
:1026A0000D9B9A42CDD800BF0FB0F0BD7CC303088C
:1026B00030C1030800B587B00390029101920093E6
:1026C000019A009B13440593039B174A1749002066
:1026D0000DF000F8019B144A154900200CF0FAFF98
:1026E000009B114A134900200CF0F4FF9DF82430A0
:1026F00083F00103DBB2002B0AD0029B0A4A0E4989
:1027000000200CF0E7FF05990298FFF791FF06E023
:10271000019A009B134419460198FFF789FF00BFF7
:1027200007B05DF804FB00BF88C303086CC1030851
:102730007CC103088CC10308A0C1030800B58FB099
:102740000390029110F08CFD0A900A2309930A9AD3
:10275000099B1344089300230D93039B1B6C079361
:10276000039B9B6B0693079A069B134405930023D8
:102770000C9300238DF82F30029A0A9B9A420ED3B5
:10278000029A089B9A420AD2029B0D93039BD3F8AC
:102790008030184610F0D1FD03460C9312E0029AE7
:1027A000079B9A4206D3029A059B9A4202D2029B49
:1027B0000C9307E001238DF82F30164A16490020AC
:1027C0000CF088FF0D9B002B03D19DF82F30002BC0
:1027D0000AD00D999DF82F30019300230093099B97
:1027E0000A9A0E48FFF766FF0C9B002B03D19DF859
:1027F0002F30002B0AD00C999DF82F300193002325
:102800000093069B079A0648FFF754FF00BF0FB0DE
:102810005DF804FB94C30308B0C10308E4C10308D6
:10282000E8C10308F0B5B1B01590149100231F93CF
:1028300020AB3C22002118460CF07DFE1FAB40224D
:102840001946159802F00CF817AB20221946159876
:1028500000F098FB17AB2C2118460CF086FE2F9049
:102860002F9B002B02D02F9B20221A70159BDB6818
:102870000F93159B9B68002B03D0159B9B685B688F
:1028800001E04FF0FF33159A127C1092159AD28B0B
:10289000521102F00302274951F822201192159992
:1028A000C98B01F00301244850F821201292159899
:1028B000C08B00F00400002801D04E2000E02D2045
:1028C000159CE48B04F01004002C01D0502400E08F
:1028D0002D24159DED8B05F40065002D01D05025AC
:1028E00000E02D25159EF26C1392159FBF6C159A72
:1028F000126C1599896B1FAE0D96104E0C960B91AC
:102900000A920997139A089217AE079606950594AE
:102910000490129A0392119A0292109A01920093D3
:102920000F9B074A074900200CF0D4FE00BF31B0CE
:10293000F0BD00BF4C0200206CC3030838C203087E
:10294000A0C30308F0C1030800B583B00C4A0D49C9
:1029500000200CF0BFFE10F083FC03461A460A2349
:1029600000931346064A084900200CF0B3FE0021EC
:10297000064800F019FA00BF03B05DF804FB00BF81
:10298000ACC3030844C20308B4C2030825280008E6
:1029900000B5B3B00790069105920493FFF738FE97
:1029A0000346002B02D0464B1B6801E0454B1B68D9
:1029B000309301238DF8C730049B002B04D142488B
:1029C0000EF013F9404B049309F034FAFFF720FEA0
:1029D000034683F00103DBB2002B08D0309BDB8B76
:1029E00003F00303022B02D000238DF8C7309DF8BB
:1029F000C73083F00103DBB23099184600F06EF85F
:102A000008AB18460AF0E4FD08AA08AB7D3303932F
:102A100008AB4A33029308AB3533019308AB153347
:102A200000931346294A2A4900200CF053FE059BC7
:102A3000002B01D0059900E02649079B002B01D00F
:102A4000079B00E0234B309A92690292069A01920A
:102A500000930B461D4A204900200CF03BFE0498D1
:102A600010F074FC049810F068FC03461946309886
:102A7000FFF764FE09F0DEF99DF8C730002B1BD08C
:102A8000FFF762FF09F0D6F93099022000F026F82E
:102A90000021022000F0BCF8EFF311832F932F9B4D
:102AA000DBB28DF8BB3080232D932D9B83F31188EF
:102AB000FA2010F067FDFBE700BF33B05DF804FBC0
:102AC000400C0020380C002060100020B8C3030820
:102AD0000CC3030834C3030838C3030800B58FB020
:102AE00001900091224B0B93EFF311830793079B07
:102AF000DBB28DF81B3080230593059B83F311888F
:102B00009DF81B308DF82B304FF0FF330C930023D2
:102B100009930B9B1B680D9315E00D9B5B68089355
:102B20000D9B1B68009A01990D989847099B002BF3
:102B300004D0099B1B685A1C099B1A60089B0D93C3
:102B40000C9B013B0C930D9B002B02D00C9B002B8C
:102B5000E3D19DF82B308DF813309DF8133003939B
:102B6000039B83F3118800BF0FB05DF804FB00BF27
:102B7000AC1000208CB00190244B0993EFF311832B
:102B80000693069BDBB28DF8173080230493049BD9
:102B900083F311889DF817308DF82330099B0B9330
:102BA000019B079300230A9313E00B9B1A68079B72
:102BB0009A4203D16FF010030A930FE0079B9A68C3
:102BC0000B9B1B689B689A4208DC0B9B1B680433B9
:102BD0000B930B9B1B68002BE7D100E000BF0A9B07
:102BE000002B06D10B9B1A68079B5A600B9B079A18
:102BF0001A609DF823308DF80F309DF80F30029346
:102C0000029B83F3118800BF0CB07047B010002006
:102C100000B58FB001900091224B0B93EFF311831D
:102C20000793079BDBB28DF81B3080230593059B30
:102C300083F311889DF81B308DF82B304FF0FF3354
:102C40000C93002309930B9B1B680D9315E00D9BC0
:102C50005B6808930D9B1B68009A01990D98984733
:102C6000099B002B04D0099B1B685A1C099B1A6006
:102C7000089B0D930C9B013B0C930D9B002B02D0EA
:102C80000C9B002BE3D19DF82B308DF813309DF871
:102C900013300393039B83F3118800BF0FB05DF8DB
:102CA00004FB00BFB010002000B587B001900B46B8
:102CB000ADF8023013468DF80130BDF802305422D1
:102CC00002FB03F318460CF0F7FF03460593059B40
:102CD000002B23D0002304931BE0059B9DF80120CB
:102CE0001A72019B0393059B0293039B1A68029B34
:102CF0001A60029B039A5A60039B1B68029A5A60EF
:102D0000039B029A1A60059B54330593049B01337D
:102D10000493BDF80220049B9A42DEDC00BF07B09A
:102D20005DF804FB08B5002208210548FFF7BCFF49
:102D3000022208210348FFF7B7FF00BF08BD00BF0C
:102D40005C0200206402002000B585B04FF43070B2
:102D50000CF0B2FF03460393039B002B1DD000230E
:102D6000029317E00F4B0193039B0093019B1A689A
:102D7000009B1A60009B019A5A60019B1B68009A95
:102D80005A60019B009A1A60039B58330393029B7D
:102D900001330293029B072BE4DD00BF05B05DF811
:102DA00004FB00BF6C02002000B58BB001900091C5
:102DB000EFF311830793079BDBB28DF81B30802361
:102DC0000593059B83F311889DF81B308DF8233004
:102DD0000023099314E0144B1A68099B9B001344C9
:102DE0001B68002B09D0104B1A68099B9B001344E9
:102DF0001A68019B009910469847099B0133099373
:102E00000A4B1B68099A9A42E5DB9DF823308DF83E
:102E100013309DF813300393039B83F3118800BF95
:102E20000BB05DF804FB00BF680C00206C0C0020A8
:102E300082B0064B1B68002B14BF012300238DF8C2
:102E400007309DF80730184602B07047280C002064
:102E500000B583B00D4B1B680193019B002B10D074
:102E6000FFF7E6FF034683F00103DBB2002B08D037
:102E7000019BB3F920309BB201339BB21AB2019B84
:102E80001A840023184603B05DF804FB380C0020B8
:102E900082B0064B1B68002B14BF012300238DF862
:102EA00007309DF80730184602B07047280C002004
:102EB00000B589B0314B1B680793079B002B58D096
:102EC000FFF7E6FF034683F00103DBB2002B50D08F
:102ED000EFF311830593059BDBB28DF8133080234C
:102EE0000393039B83F311889DF813308DF81B30F7
:102EF000079BB3F92030002B08DD079BB3F9203086
:102F00009BB2013B9BB21AB2079B1A84079BB3F991
:102F10002030002B23DC079B00221A84184B1B68EF
:102F2000002B0AD001F082FF0346002B05D0134B83
:102F30001B680799184610F0D3FA079BDB8B03F048
:102F40006003202B0BD1079B5B6A002B07D10B4B37
:102F50001A68079B9A4202D0079B14225A629DF876
:102F60001B308DF80B309DF80B300193019B83F3E0
:102F700011880023184609B05DF804FB380C0020C6
:102F8000440C002000B58FB0039002910192EFF342
:102F900011830B930B9BDBB28DF82B3080230993AD
:102FA000099B83F311889DF82B308DF83730039BF4
:102FB0001B7F052B1BD1039B5B6C9B7803F00403E9
:102FC000002B14D0039B5B6CDB680C939DF83730AF
:102FD0008DF823309DF823300793079B83F31188E6
:102FE0000C9B0F4A019902980AF0E5FF14E09DF846
:102FF00037308DF81B309DF81B300593059B83F30C
:103000001188039B1B7F1A46064B53F82230019A06
:10301000194602980CF0C1FA00BF0FB05DF804FB2E
:1030200044C4030858C4030800B587B001900B4698
:10303000ADF8023013468DF80130BDF802305B0167
:1030400018460CF039FE03460393039B002B2AD04D
:10305000039B05930023049320E0059B9DF801202A
:103060001A77059B03F1200205920293029B00222E
:103070001A60019B1B68002B06D1019B029A1A6003
:10308000019B029A5A6006E0019B5B68029A1A60F3
:10309000019B029A5A60049B01330493BDF80220FD
:1030A000049B9A42D9DC039B184607B05DF804FBE9
:1030B00000B587B001900B46ADF8023013468DF88D
:1030C0000130BDF8022013469B0013449B001846B4
:1030D0000CF0F2FD03460393039B002B2AD0039BC5
:1030E00005930023049320E0059B9DF801201A74AA
:1030F000059B03F1140205920293029B00221A60C1
:10310000019B1B68002B06D1019B029A1A60019B50
:10311000029A5A6006E0019B5B68029A1A60019B62
:10312000029A5A60049B01330493BDF80220049B69
:103130009A42D9DC039B184607B05DF804FB0000F7
:1031400008B5204B00221A601E4B00225A601E4B0D
:1031500000221A601C4B00225A601C4B00221A608D
:103160001A4B00225A601A4B00221A60184B002298
:103170005A60184B00221A60164B00225A60002237
:1031800004211148FFF750FF0246134B1A60022238
:1031900008210E48FFF748FF0246104B1A60002234
:1031A00004210B48FFF784FF02460D4B1A600222F0
:1031B00008210848FFF77CFF02460A4B1A6000BF4F
:1031C00008BD00BFB4100020BC100020C4100020B7
:1031D000CC100020D4100020DC100020E0100020D3
:1031E000E4100020E810002000B58DB00790059293
:1031F00004930B468DF81B3084200CF07FFD0346B2
:103200000B930B9B002B02D16FF00B0323E09DF877
:103210001B309AB20B9BDA830E9B119A0392109A81
:1032200002920F9A01920093049B059A07990B98BA
:1032300000F09CF80A900A9B002B04DA0B980CF023
:103240002BFD0A9B07E00B9BDB6809930B9B184641
:1032500000F050FB099B18460DB05DF804FB00B56B
:1032600089B007900691059204930C9B002B03D123
:1032700000F056FF034600E00C9B03930B9B029368
:103280000A9B0193049B0093059B069A00210798D3
:10329000FFF7AAFF0346184609B05DF804FB00B526
:1032A0008BB00790069105920493002302930D9B27
:1032B00001930C9B0093049B059A06990798FFF7CE
:1032C000CEFF0990099B002B08DA0AF06FF902463D
:1032D000099B5B4213604FF0FF330993099B18462B
:1032E0000BB05DF804FB00B587B005900491039224
:1032F0000293089B0193029B0093039B0022049975
:103300000598FFF7CCFF0346184607B05DF804FBAD
:1033100000B589B0079006910592049300230393AA
:103320000B9B02930A9B0193049B0093059B069AB7
:1033300002210798FFF758FF0346184609B05DF8C9
:1033400004FB00B587B00590049103920293089B9B
:103350000193029B0093039B002204990598FFF7B9
:10336000D7FF0346184607B05DF804FB00B589B0E7
:103370000590049103920293059BDB8BDBB203F073
:1033800003038DF81B30059BDB8BDBB219460598D8
:1033900001F040F80790079B002B01DA079B67E0DC
:1033A000059B9B680D99184600F0C6FE0790079B89
:1033B000002B3FDB059801F0E5F90790079B002BF8
:1033C0003ADB029B002B07D0059B0A9A029918460C
:1033D00010F0B0F8079007E0059B9DF81B200A99B4
:1033E00018460FF0B7FE0790079B002B26DB059BC6
:1033F000184600F051FD0790079B002B20DB9DF83D
:103400001B3000930B9B1C4A0399059800F034FA7B
:103410000790079B002B15DB0C9A0499059800F088
:1034200053FA0790079B002B0EDB059801F042F83A
:10343000079B1DE000BF08E000BF06E000BF04E0FE
:1034400000BF02E000BF00E000BF029B002B0AD1DA
:10345000059BDB6B002B06D0059B9DF81B201146BE
:1034600018460FF041FF059B184601F034F9079B01
:10347000184609B05DF804FB5D39000800B587B057
:103480000190019B0593059B5B680493059B1B685A
:103490000393049B002B03D1124A039B136002E0A9
:1034A000049B039A1A60039B002B03D10D4A049BD3
:1034B000536002E0039B049A5A60059B00221A6045
:1034C000059B00225A60019BDB8BDBB203F00303F8
:1034D000DBB21946019801F0EDFD00BF07B05DF8C1
:1034E00004FB00BF5C0C002000B591B00190EFF32D
:1034F00011830993099BDBB28DF823308023079356
:10350000079B83F311889DF823308DF83730474BA4
:103510001B6801330F9300230E9331E00F9B002BA8
:1035200001DC01230F93424B1B685A1E0F9B134073
:103530000B93404B1A680B9B9B0013441B68002B9A
:1035400018D13C4B1A680B9B9B001344019A1A60DC
:10355000019B0F9ADA60354A0F9B13609DF8373054
:103560008DF81B309DF81B300593059B83F3118864
:10357000002357E00F9B01330F930E9B01330E93F3
:103580002B4B1B680E9A9A42C8DB294B1B68DB0049
:1035900018460CF0B3FB03460C930C9B002B0CD18C
:1035A0009DF837308DF813309DF813300393039B4B
:1035B00083F311886FF00B0334E01D4B1B685B0035
:1035C0001B4A136000230E9319E01A4B1A680E9BD6
:1035D0009B0013441B68DA68154B1B68013B1340C2
:1035E0000B930B9B9B000C9A1344124A11680E9A82
:1035F00092000A4412681A600E9B01330E930C4B22
:103600001B68DA0F13445B101A460E9B9A42DCDCEF
:10361000084B1B680A93074A0C9B13600A980CF02E
:103620003BFB74E7184611B05DF804FB640C002006
:103630006C0C0020680C002000B589B0039002914A
:1036400001920093394B1B6807930398FFF74CFFD7
:103650000690069B002B64D1029BDAB2039B1A747E
:10366000029BDAB2039B5A74039B019A5A61009A37
:10367000039B9A619DF8283003F003038DF82830EE
:10368000039BDB8B23F003039AB2039BDA83039B38
:10369000DA8B9DF828309BB213439AB2039BDA83EE
:1036A000039BDB8B23F060039AB2039BDA83039BBB
:1036B000DB8B43F020039AB2039BDA83039B142233
:1036C0005A62039B079A4833483292E8030083E822
:1036D0000300039B00221A7703980FF0B7FFFFF750
:1036E000B7FB039B0593059B00225A60104B1A6899
:1036F000059B1A600E4B1B68002B06D10C4A059BDC
:1037000013600B4A059B536006E0094B1B68059A42
:103710005A60074A059B1360039B04221A77FFF740
:10372000C7FB069B184609B05DF804FB380C002067
:103730005C0C002000B58DB00390029101920298BC
:103740000BF061FF034601330A9300230993019BA9
:10375000002B26D01EE0099B9B00019A13441B6896
:1037600018460BF050FF02460A9B134401330A939C
:10377000039B9A6B0A9B9A4202D86FF0230377E06F
:10378000099B01330993099BB3F5807F02DD6FF03C
:1037900006036DE0099B9B00019A13441B68002BF4
:1037A000D9D1099B02339B0007930398079A0A9B80
:1037B000134419460FF056FE0690069B002B02D1CB
:1037C0006FF00B0354E0069A079B13440B93069B80
:1037D0000B9A1A6002980BF016FF0346013305930B
:1037E0000A9A02990B980BF0D8FE059B0B9A13448A
:1037F0000B93059B0A9AD31A0A930023089326E099
:10380000089B01339B00069A13440B9A1A60089B8D
:103810009B00019A13441B6818460BF0F4FE034604
:1038200001330593089B9B00019A13441B680A9A75
:1038300019460B980BF0B1FE059B0B9A13440B93A2
:10384000059B0A9AD31A0A93089B01330893089A96
:10385000099B9A42D4DB099B01339B00069A1344CF
:1038600000221A60039B9B681B6C069A1A61002356
:1038700018460DB05DF804FB00B587B005900491C3
:10388000039202939DF820300093029B039A0499BF
:103890000598FFF7D1FE0346184607B05DF804FB14
:1038A00000B587B005900491039202930123009321
:1038B000029B039A04990598FFF7BEFE034618463B
:1038C00007B05DF804FB000000B585B003900291DD
:1038D0000192029B002B01D1054B0293019A0299A0
:1038E0000398FFF727FF0346184605B05DF804FB71
:1038F00080C4030800B58BB00190EFF311830793E8
:10390000079BDBB28DF81B3080230593059B83F367
:1039100011889DF81B308DF827300F4B1B680893DA
:10392000019801F0E5FA019801F0DAF90346002B5D
:1039300003D0089901980FF0D3FD9DF827308DF83A
:1039400013309DF813300393039B83F3118800BF5A
:103950000BB05DF804FB00BF380C002000B585B04B
:10396000214B1B68019301230393019BDB8B03F025
:103970000303022B03D0019B184601F081FE0123B3
:10398000029309E0029B01330293029BB3F5807F0F
:1039900002DD012000F02AF8019B9B681B6C1A696C
:1039A000029B9B0013441B68002BEBD1019BDB8B1C
:1039B00003F00303022B0AD1019B9B69019A9268D1
:1039C000126C1269114602989847039009E0019B16
:1039D0009869019B9B681B6C1B691A4602990AF047
:1039E000B7F8039800F002F8380C002000B585B055
:1039F0000190084B1B680393019BDBB20193039872
:103A000000F00EFF0199039801F0D6FE01980FF027
:103A1000FDFB00BF380C002000B58DB0079006916B
:103A20000592049384200CF069F903460B930B9BD9
:103A3000002B02D16FF00B0332E00B9B0022DA83E4
:103A4000049B109A03920F9A02920E9A019200938D
:103A5000059B069A07990B98FFF788FC0A900A9B2A
:103A6000002B04DA0B980CF017F90A9B18E0119B55
:103A7000002B0DD00B9B1199184601F084FF0A9082
:103A80000A9B002B04DA0B98FFF7F8FC0A9B07E06F
:103A90000B9BDB6809930B9B1846FFF72BFF099BD9
:103AA00018460DB05DF804FB10B58EB00790069176
:103AB0000592049300230D9300230A93FFF7C8F99E
:103AC000109B002B09D0109B5B780B93109BDB683D
:103AD0000C93109B1B690D930DE008AB1946002059
:103AE00001F016FB0A900A9B002B2FDB089B0B931F
:103AF0004FF400630C930C9C129B002B03D100F03D
:103B00000FFB034600E0129B049A03920293119B61
:103B10000193059B009323460D9A0B990698FFF796
:103B20007BFF0990099B002B02DA099B0A930EE0A8
:103B3000099B002B02D0079B099A1A60109B002B4F
:103B400005D01099099801F0C5FE00E000BFFFF70D
:103B5000AFF90A9B18460EB010BD00B58BB00790A8
:103B60000691059204934FF0FF330893049B002BBA
:103B700002D0049801F0F0FE059B002B02D0059BBB
:103B80001A6800E0002208A80D9B02930C9B019389
:103B9000049B00931346069A0799FFF785FF099047
:103BA000099B002B01DB089B00E0099B18460BB02A
:103BB0005DF804FB82B01F4B00221A601D4B0022EF
:103BC0005A600023019329E01B49019A1346DB0048
:103BD0001344DB000B44053301221A70019A13468B
:103BE000DB001344DB00144A13440093009B0022C3
:103BF0001A60104B1B68002B06D10E4A009B136005
:103C00000C4A009B536006E00A4B5B68009A1A60FE
:103C1000084A009B5360019B01330193019B032BD6
:103C2000D2DD064B00221A60044B00225A6000BF0E
:103C300002B070470C120020EC100020141200207B
:103C400000B58BB00190EFF311830693069BDBB2B6
:103C50008DF8173080230493049B83F311889DF81B
:103C600017308DF82330114B1B6809930CE0099B2A
:103C70001B680793099B9A68019B9A4202D1099895
:103C800000F04EF8079B0993099B002BEFD19DF89C
:103C900023308DF80F309DF80F300293029B83F391
:103CA000118800BF0BB05DF804FB00BF14120020A8
:103CB0008AB0019000230993019B002B2AD0EFF3D7
:103CC00011830693069BDBB28DF817308023049393
:103CD000049B83F311889DF817308DF81F300F4B2C
:103CE0001B68089309E0089A019B9A4202D1019B44
:103CF000099305E0089B1B680893089B002BF2D1F1
:103D00009DF81F308DF80F309DF80F300293029B05
:103D100083F31188099B18460AB0704714120020DB
:103D200000B585B001900198FFF7C2FF0346184621
:103D300000F090F80390039B002B08DA09F036FCA2
:103D40000246039B5B4213604FF0FF3300E0002309
:103D5000184605B05DF804FB00B58FB00190EFF395
:103D600011830993099BDBB28DF8233080230793DD
:103D7000079B83F311889DF823308DF83330019B26
:103D80000B93324B1B68002B27D00B9B002B24D0AE
:103D90002E4B1A680B9B9A420CD12C4A0B9B1B682A
:103DA00013602A4B5A680B9B9A4216D1274B00226C
:103DB0005A6012E0254B1B680D930BE00D9B1A68AF
:103DC0000B9B9A4203D121490D9809F00EFE0D9BE1
:103DD0001B680D930D9B002BF0D1019B5B7903F0C9
:103DE0000103002B21D0019B0A930A9B00221A6039
:103DF000174B1B68002B06D1154A0A9B1360144A07
:103E00000A9B536006E0124B5B680A9A1A60104ADC
:103E10000A9B53609DF833308DF81B309DF81B30A2
:103E20000593059B83F311880CE09DF833308DF8E2
:103E300013309DF813300393039B83F3118801988B
:103E40000BF02AFF00BF0FB05DF804FB1412002036
:103E50000C12002000B583B00190019B002B02D111
:103E60006FF0150314E0019B9B79012B07D9019B8F
:103E70009B79013BDAB2019B9A71012308E0019B17
:103E80001033184600F020F80198FFF765FF002373
:103E9000184603B05DF804FB00B585B001902C21F5
:103EA00001980FF0DFFA0390039B002B02D16FF013
:103EB0000B0305E0019B9B681A6C039B1A600023AF
:103EC000184605B05DF804FB00B58DB001906FF0A9
:103ED00015030993EFF311830793079BDBB28DF86A
:103EE0001B3080230593059B83F311889DF81B30BD
:103EF0008DF82330019B002B32D0019B9B68002B57
:103F00002ED000230A931E4B1B680B9304E00B9BDF
:103F10000A930B9B1B680B930B9B002B03D00B9AF4
:103F2000019B9A42F3D10B9B1B68002B08D00B9B83
:103F30001B680B9A1268D1680B9AD2680A44DA603F
:103F40000A9B002B04D00E490A9809F04EFD02E0AE
:103F50000B4809F030FD019B00229A600023099371
:103F60009DF823308DF813309DF813300393039B95
:103F700083F31188099B18460DB05DF804FB00BF60
:103F80005C12002000B591B001900091009B0433B9
:103F90001B680022002118460BF058F803460E93C8
:103FA000EFF311830A930A9BDBB28DF8273080234D
:103FB0000893089B83F311889DF827308DF83F30D4
:103FC0002AE00D9B1B69002B00D125E00D9B1B698E
:103FD0000C930D9B5B690B930D9B00221A619DF85E
:103FE0003F308DF813309DF813300393039B83F318
:103FF00011880C9B0B989847EFF311830793079B4D
:10400000DBB28DF81B3080230593059B83F3118869
:104010009DF81B308DF83F300E9B184609F009FDC6
:104020000D900D9B002BCCD10E9B0833184601F050
:1040300063F9F1E700B593B0059004910392029300
:10404000149B06A8184A202109F0B5FF06AB0E9371
:1040500000230F93FEF7FCFE0023119319E00EAB33
:104060000093124B039A04990598FFF76AF9109090
:10407000109B002B03DAFEF71BFF109B10E0149A35
:10408000119B04339B001344109A5A60119B013317
:104090001193119A029B9A42E1DBFEF709FF00237C
:1040A000184613B05DF804FB8CC40308853F000874
:1040B00000B583B0064B009301234FF40062E0216A
:1040C0000448FFF7B7FF0346184603B05DF804FB4A
:1040D0001C12002094C4030800B583B0064B009363
:1040E00001234FF4006264210448FFF7A3FF034655
:1040F000184603B05DF804FB341200209CC403088A
:1041000008B50DF025FF00BF08BD0000034B1B687C
:104110000133024A136000BF704700BF4C120020F9
:1041200082B0044B1B680193019B9B68DB6D1846B2
:1041300002B07047380C002010B586B00190009195
:10414000002305930023049300230393FEF780FECE
:10415000009B002B71D002E0049B01330493049B6D
:104160009B00009A13441B68002BF5D1049A019B15
:104170001A66049B002B5DD0049B01339B001846FC
:104180000BF09AFD03460593059B002B03D16FF0BE
:104190000B0303934EE0049B9B00059A13440022FB
:1041A0001A6042E0049B9B00009A13441B68184667
:1041B0000BF029FA034601330293049B9B00059AF6
:1041C000D41802980BF078FD03462360049B9B00F3
:1041D000059A13441B68002B19D107E0049B9B0030
:1041E000059A13441B6818460BF056FD049B0133D7
:1041F0000493049B9B00059A13441B68002BEDD18C
:1042000005980BF049FD6FF00B03039312E0049B3C
:104210009B00059A13441868049B9B00009A134462
:104220001B68029A19460BF0B8F9049B5A1E0492B7
:10423000002BB7D1019B059ADA65FEF739FE039B87
:10424000184606B010BD000010B58EB00590049160
:10425000039200230C9300230B93059B002B02D1A8
:1042600016230B938DE0049B002B03D0049B1B783B
:10427000002B09D1039B002B04D0059800F090F887
:10428000034685E0002383E0FEF7E2FD424B1B6816
:104290000A930A9B9B680993099BDB6D002B12D044
:1042A0000599099801F0BAFC0B900B9B002B0ADBD7
:1042B000039B002B03D1FEF7FBFD002368E00B9965
:1042C000099801F0D9FC05980BF09DF90446049873
:1042D0000BF099F90346234402330893089B1846D0
:1042E0000BF0EAFC03460793079B002B02D10C233B
:1042F0000B9344E0099BDB6D002B12D0099B1B6ED6
:104300000C93099BDA6D0C9B02339B0019461046F7
:104310000BF0E2FC0D900D9B002B0DD10C230B93A9
:104320002AE008200BF0C8FC03460D930D9B002BE0
:1043300002D10C230B931FE00C9B5A1C0C929B0088
:104340000D9A1344079A1A600C9B9B000D9A134414
:1043500000221A60099B0D9ADA65099B0C9A1A666D
:104360000899049B0093059B0C4A079809F023FECB
:10437000FEF79EFD00230BE007980BF08DFCFEF787
:1043800097FD09F013F902460B9B13604FF0FF33C2
:1043900018460EB010BD00BF380C0020A4C403089E
:1043A00000B587B001901A4B1B680593059B9B686D
:1043B0000493019B002B0AD0019B1B78002B06D095
:1043C0003D2101980BF0D1F80346002B07D009F0EE
:1043D000EDF80246162313604FF0FF3313E0FEF7AB
:1043E00037FD049B002B0BD00199049801F016FCBB
:1043F0000390039B002B03DB0399049801F03CFC22
:10440000FEF756FD0023184607B05DF804FB00BF19
:10441000380C002000B585B001900B468DF80330B4
:104420006FF00B0303939C200BF068FC0346029390
:10443000029B002B02D16FF00B0336E010200BF033
:104440003BFC03461A46029B1A61029B1B69002B28
:1044500026D0029B04229A73019B029A9A60029BC7
:104460006833184618F037F8029801F04EFB0390B5
:10447000039B002B0DDB029B2833184609F0F9F84B
:10448000029B183300220021184609F070FB00231C
:104490000BE000BF029B1B6918460BF0FDFB00E020
:1044A00000BF02980BF0F8FB039B184605B05DF8BF
:1044B00004FB000000B589B00190019B9B68079345
:1044C000079B03F18002019BDB8B03F00203002BAF
:1044D00014BF01230023DBB2194610460BF0C1FDC7
:1044E000079B1B69019AD2681A60019BDA68079BD7
:1044F0005A60079B01225A73EFF311830493049BC4
:10450000DBB28DF80F3080230293029B83F3118876
:104510009DF80F308DF81B300A4B1A68079B1A6004
:10452000084A079B13609DF81B308DF81A309DF8E0
:104530001A300593059B83F3118800BF09B05DF81D
:1045400004FB00BF581200208AB00190EFF31183E2
:104550000693069BDBB28DF8173080230493049BEF
:1045600083F311889DF817308DF81F3000230893CE
:10457000174B1B68099304E0099B0893099B1B6870
:104580000993099B002B03D0099A019B9A42F3D10E
:10459000099B002B0ED0089B002B04D0099B1A68A6
:1045A000089B1A6003E0099B1B68094A1360099B7A
:1045B00000221A609DF81F308DF80F309DF80F30E3
:1045C0000293029B83F3118800BF0AB0704700BFBB
:1045D0005812002000B583B00190019801F0B3FAA1
:1045E000019800F0EAFE019800F055FB019B68334A
:1045F000184617F07BFF019801F0C5FA019B803344
:1046000018460BF043FD0198FFF79EFF019B1B69C5
:10461000002B07D0019B1B6918460BF03DFB019B4B
:1046200000221A61019B1B7B43F00403DAB2019B59
:104630001A73019800F06CF800BF03B05DF804FB3A
:1046400088B001900091002307933BE0019B1A6919
:10465000079B9B0013441A68009B9A422FD1EFF3EB
:1046600011830493049BDBB28DF80F3080230293F7
:10467000029B83F311889DF80F308DF81B30019B4E
:104680001A69079B9B001A44019B1969019B5B7B7C
:1046900003F18043013B9B000B441B681360019BAB
:1046A0005B7B013BDAB2019B5A739DF81B308DF89E
:1046B0001A309DF81A300593059B83F31188079BE8
:1046C00001330793019B5B7B1A46079B9A42BDDC33
:1046D00000BF08B0704700B585B00190019B9B6892
:1046E0000393039B002B0FD0019BDB6819460398B3
:1046F000FFF7A6FF039B5B7B002B02D10398FFF71C
:1047000069FF019B00229A6000BF05B05DF804FBC1
:1047100000B583B00190019B1B7D002B08D1019B4C
:104720001B7B03F00403002B02D001980BF0B4FABA
:1047300000BF03B05DF804FB00B585B00190032114
:104740000F4819F04CF80390039B002B0CD101216A
:10475000002018F031F90221002018F02DF90198FD
:1047600001F0DCFA034607E0039B002B02DD03980F
:1047700018F0B3F96FF01603184605B05DF804FBA6
:10478000ACC4030800B587B00190019B9B680593FA
:104790000D4B1B680493049B9B6803F16802059B07
:1047A00068331946104617F0C6FF0390039B002B91
:1047B00001DA039B03E0019801F0B0FA03461846C2
:1047C00007B05DF804FB00BF380C002000B585B0D1
:1047D00001900091009B019A9A421CD0019800F030
:1047E000EDFB0390039B002B15D0039BDB8B23F089
:1047F00004039AB2039BDA83039BDB8B03F003036E
:10480000012B04D1019800F08DF8029003E001988B
:1048100000F05AFF02900023184605B05DF804FB33
:1048200000B585B00190FEF713FB019B9B68019AD0
:104830009268127B42F00802D2B21A73019B986808
:10484000019BDB681A46054901F082FA0390FEF7E6
:104850002FFB039B184605B05DF804FBCD4700080D
:1048600000B58BB005900491039200230993059B3A
:10487000002B08D0059B9B68002B04D0059B9B68F0
:104880001B6C002B04D1049B00221A70002340E013
:10489000059BDB8B03F00303012B13D1059B0793CF
:1048A000079B9A69079BD3F88830009313461B4AED
:1048B0000399049809F07FFB03461A46099B1344A9
:1048C000099320E0059B9B681B6C1B6904330893CC
:1048D00011E0049A099BD018039A099BD11A089BEE
:1048E0001A1D08921B680E4A09F065FB03461A461A
:1048F000099B13440993089B1B68002B03D0099A5A
:10490000039B9A42E5D3039B5A1E099B934228BFFF
:10491000134618460BB05DF804FB00BFBCC4030887
:10492000C4C4030800B585B00190019B002B01D1E0
:10493000032327E0019800F041FB0390039B002B29
:1049400001D103231EE0039801F052F80346002B27
:1049500001D0002316E00D4B1A68039B9A4203D145
:104960004FF0FF3008F0AFFF039BDB6B184608F0F9
:10497000DFFF4FF0FF31019800F085F8019801F05A
:1049800074F80346184605B05DF804FB380C0020A7
:1049900000B585B00190019B0C3302AA1146184660
:1049A00009F025F90390039B002B29D1029B002BD2
:1049B00026DA019B03F11800029B01331A460021FD
:1049C00009F0D5F8019B0C33184601F038FA039032
:1049D000039B002B07D1019B0C3302AA11461846FA
:1049E00009F005F90390029B002B02DA039B002BD0
:1049F000E8D0019B1833184600F07EFC012300E04C
:104A00000023184605B05DF804FB84B001900091C6
:104A100000230393019B9B6B029304E0029B03938F
:104A2000029B1B680293029B002B04D0029B9A6896
:104A3000009B9A42F2D1029B002B21D0039B002BBA
:104A40000FD1029B1B68002B06D1019B00229A63A9
:104A5000019B0022DA6313E0029B1A68019B9A63B0
:104A60000EE0029B1B68002B06D1019B039ADA63C0
:104A7000039B00221A6003E0029B1A68039B1A60E2
:104A800000BF04B0704700B589B001900091019853
:104A900000F094FA0790079B002B02D0079B9B68BD
:104AA00000E000230693069B2833184608F046FED4
:104AB00002AB1A460199069800F0A6F80590059BEE
:104AC000002B0ED0069B2833184608F057FE079B94
:104AD000DB8B1BB2002B01DA00232BE04FF0FF33FE
:104AE00028E0079B0493029B01229A71029B009A83
:104AF0005A62049B012283F89020029B1846FFF71C
:104B000047FF03468DF80F309DF80F3083F0010307
:104B1000DBB2002B08D0029B5B79002B04D0029BF8
:104B20001946069800F00AF8069B2833184608F044
:104B300025FE0023184609B05DF804FB00B583B0DC
:104B400001900091009B9B6819460198FFF75DFF5B
:104B5000009B1833184600F02DFB009B0C331846C1
:104B600000F028FB00980BF097F800BF03B05DF849
:104B700004FB00B585B00190009128200BF0BEF831
:104B800003461A46009B1A60009B1B68002B01D14C
:104B9000162335E0009B1B68019AD2689A60009B3F
:104BA0001B680C3300220021184608F0E0FF034682
:104BB000002B06DA009B1B6818460BF06DF81623D5
:104BC0001EE0019B9B680393009B1A68019BC3F83E
:104BD0008C20009B1B6800221A60039BDB6B002B60
:104BE00004D1009B1A68039B9A6304E0039BDB6B70
:104BF000009A12681A60009B1A68039BDA6300230C
:104C0000184605B05DF804FB00B587B0039002912B
:104C10000192039B9A6B019B1A6004E0019B1B6845
:104C20001A68019B1A60019B1B68002B05D0019B31
:104C30001B689A68029B9A42F0D1019B1B68002B6B
:104C400001D0002323E0029800F0B8F90590059BFD
:104C5000002B01D103231AE0059BDB8B1BB2002B39
:104C600005DB059BDB8B03F00303012B01D016232F
:104C70000DE0059B0493049B93F89030002B01D02A
:104C8000032304E001990498FFF773FF03461846D5
:104C900007B05DF804FB00B585B0019013E0019BFF
:104CA0009B6B0393039B1A68019B9A63039B1833C6
:104CB000184600F07FFA039B0C33184600F07AFA8E
:104CC00003980AF0E9FF019B9B6B002BE7D1019B46
:104CD0002833184608F0EEFC00BF05B05DF804FB71
:104CE00000B585B001901B4B1B680293029BB3F982
:104CF0002030002B10DD029B1A7C019B1B7C9A420A
:104D00000AD21549019800F029F8019B01221A776F
:104D100000238DF80F3017E00E49019800F01EF8BF
:104D20000346002B0AD0019B03221A77019B1B68C4
:104D300002221A7701238DF80F3005E0019B022231
:104D40001A7700238DF80F309DF80F30184605B004
:104D50005DF804FB380C0020440C002086B0019064
:104D60000091019B1B7C8DF8123000238DF81330CD
:104D7000009B1B68059302E0059B1B680593059B40
:104D8000002B05D0059B1B7C9DF812209A42F3D97D
:104D9000059B002B22D1009B5B680393039B002B98
:104DA0000FD1019B00221A60019B00225A60009BD8
:104DB000019A1A60009B019A5A6001238DF8133002
:104DC0002EE0019B00221A60019B039A5A60039B0C
:104DD000019A1A60009B019A5A6021E0059B5B686A
:104DE0000393039B002B0FD1019B059A1A60019B33
:104DF00000225A60059B019A5A60009B019A1A6032
:104E000001238DF813300BE0019B059A1A60019B7A
:104E1000039A5A60039B019A1A60059B019A5A6093
:104E20009DF81330184606B07047000086B0002386
:104E30008DF80F302C4B1B680493049BB3F9203082
:104E4000002B4BD1294B1B6805933EE0059B1B684B
:104E5000029302E0049B1B680493049B002B05D083
:104E6000059B1A7C049B1B7C9A42F3D9049B5B68CC
:104E70000193019B002B15D1059B049A1A60059B99
:104E800000225A60049B059A5A60174A059B1360DA
:104E9000049B02221A77059B03221A7701238DF8BF
:104EA0000F300EE0059B049A1A60059B019A5A6028
:104EB000019B059A1A60049B059A5A60059B022281
:104EC0001A77059B0493029B0593059B002BBDD18C
:104ED000064B00221A60054B00225A609DF80F30E5
:104EE000184606B0704700BF380C0020440C002064
:104EF00086B00190019B1B7F8DF81730019B0493B6
:104F0000049B5B680393049B1B680293039B002B29
:104F10001CD1019B1B7F284ADB0013441B7903F043
:104F20000803002B09D0019B5B6C019A127F11468C
:104F3000214A52F83120134405E0019B1B7F1A4699
:104F40001D4B53F83230029A1A6002E0039B029A1A
:104F50001A60029B002B1CD1019B1B7F164ADB00B1
:104F600013441B7903F00803002B09D0019B5B6CF1
:104F7000019A127F1146104A52F83120134405E07D
:104F8000019B1B7F1A460C4B53F83230039A5A6030
:104F900002E0029B039A5A60049B00221A60049B61
:104FA00000225A60019B00225A64019B00221A775A
:104FB00000BF06B0704700BF4CC003088AB0019024
:104FC00000230993EFF311830693069BDBB28DF860
:104FD000173080230493049B83F311889DF81730C6
:104FE0008DF82330194B1B68002B21D0019B002B1F
:104FF0001EDB174B1B685A1E019B13400793134B74
:105000001A68079B9B0013441B68002B10D00F4BA2
:105010001A68079B9B0013441B68DA68019B9A423D
:1050200006D10A4B1A68079B9B0013441B6809931F
:105030009DF823308DF80F309DF80F300293029BBE
:1050400083F31188099B18460AB07047680C00204A
:105050006C0C00208AB00190EFF311830593059B3F
:10506000DBB28DF8133080230393039B83F3118805
:105070009DF813308DF827300C4B1B685A1E019B8E
:10508000134008930A4B1A68089B9B0013440022A4
:105090001A609DF827308DF81F309DF81F30069359
:1050A000069B83F3118800BF0AB070476C0C002088
:1050B000680C002000B585B001900B468DF80330D8
:1050C00000230393019B002B1DD0019BDB68184636
:1050D000FEF7B6FD019BDB68002B04D0019BDB686B
:1050E0001846FFF7B7FF019BDB6B002B05D09DF83F
:1050F0000330194601980EF0F7F80198FFF7EBFA24
:1051000001980AF0C9FD039B184605B05DF804FB41
:1051100000B587B00190009100230593009B002B00
:1051200002D16FF0150325E0144B1B680493019B1B
:10513000002B04D0049BDA68019B9A4205D1049BA2
:105140001B7C1A46009B1A6013E0FDF781FE019854
:10515000FFF734FF0390039B002B03D16FF0020392
:10516000059304E0039B1B7C1A46009B1A60FDF725
:105170009FFE059B184607B05DF804FB380C002025
:1051800000B585B00190009100990198FFF7C0FF2C
:105190000390039B002B08DA08F008FA0246039BF1
:1051A0005B4213604FF0FF330393039B184605B037
:1051B0005DF804FB82B00190019B1B881BB2002BA1
:1051C00002DB019B01221A800023184602B07047BF
:1051D00000B585B00190019B002B07D108F0E6F9DE
:1051E0000246162313604FF0FF3310E00198FFF7DB
:1051F000E1FF0390039B002B08DA08F0D7F9024681
:10520000039B5B4213604FF0FF330393039B1846ED
:1052100005B05DF804FB000000B58BB00190354B84
:105220001B680893EFF311830693069BDBB28DF89E
:10523000173080230493049B83F311889DF8173063
:105240008DF81F30019B1B881BB2002B0EDD019BCC
:105250001B881BB29BB2013B9BB21AB2019B1A8006
:10526000089B00225A640023099334E0019B1B88A9
:105270001BB29BB2013B9BB21AB2019B1A80089BE6
:10528000019A5A64089B00225A840121089800F070
:105290002DFE03468DF81E30089B05221A77019BD0
:1052A000043319460898FFF759FD9DF81E30002B6E
:1052B00005D0104B1B68089918460EF011F9089B91
:1052C000B3F92230002B04D0089BB3F922305B42A3
:1052D00000E0002309939DF81F308DF80F309DF8F2
:1052E0000F300293029B83F31188099B18460BB081
:1052F0005DF804FB380C002000B585B001900198E2
:10530000FFF78AFF0390039B13F1040FF7D0039B71
:10531000184605B05DF804FB00B585B00190019B0F
:10532000002B07D108F042F90246162313604FF014
:10533000FF3313E00198FFF76FFF0390039B002BEF
:105340000BDA039B5B42029300BF08F02FF9024681
:10535000029B13604FF0FF3300E00023184605B0B6
:105360005DF804FB00B585B0019002E0039801F000
:1053700069FC019B5833184608F01DFB0390039B02
:10538000002BF3D102E0039801F05CFC019B603339
:10539000184608F010FB0390039B002BF3D1019BF0
:1053A0004833184608F0F2FC019B5033184608F0C9
:1053B000D9FC00BF05B05DF804FB00B585B00190D5
:1053C00002E0039801F07EFB019B4433184608F08D
:1053D000F2FA0390039B002BF3D102E0029801F054
:1053E0004FFD019B4C33184608F0E5FA0290029BF2
:1053F000002BF3D100BF05B05DF804FB82B0019033
:1054000000BF02B07047000000B585B00190094BA5
:105410001B680393039B1846FFF702FA039BDB8B81
:1054200003F00303012B02D1002008F04CFA012005
:10543000FEF7DCFA380C002000B585B00190194B5E
:105440001B680393039B9B680293039800F0BCFCCA
:10545000FDF7FEFC029B5B7D03F00403002B18D0DC
:10546000029B5B6A002B06D0029B5B6A00221A60DB
:10547000029B00225A62029B00225A7504E0029BA2
:105480001833184601F07EF8029B1B8B1BB2002BD1
:10549000F5DB039800F0C0FFFDF70AFD00BF05B083
:1054A0005DF804FB380C002084B0019000230393C6
:1054B00010E00C4A039B12F833301A46019B9A42C3
:1054C00005D1084A039BDB0013445B6806E0039B9D
:1054D00001330393039B122BEBD90023184604B02E
:1054E000704700BFC8C4030800B589B0019000919F
:1054F000009B5B68002B1BD003AB142200211846D5
:105500000AF019F8009B5B68039302230693009B43
:105510001B78184603A90123002201F0D9F9019B49
:1055200003F15402009B1B781946104608F0C4FB97
:1055300000BF09B05DF804FB00B585B00190009193
:10554000019B9B680393039B54330099184608F012
:10555000C6FC0290029B002B04DB029B002B01D0B7
:10556000012300E0002303F00103DBB2184605B07D
:105570005DF804FB84B001900023039317E00F4A09
:10558000039B12F833301A46019B9A420CD10B4A06
:10559000039BDB0013445B7803F00103002B0CBF7B
:1055A00001230023DBB206E0039B01330393039B3B
:1055B000122BE4D90123184604B07047C8C403086D
:1055C00000B591B00390029113468DF80730002387
:1055D0000F93039B9B680E939DF80730002B26D0FA
:1055E0000298FFF761FF0F900F9B002B1FD0EFF386
:1055F00011830B930B9BDBB28DF82B308023099327
:10560000099B83F311889DF82B308DF837300E9B62
:1056100054330299184608F04FFB9DF837308DF847
:1056200036309DF836300C930C9B83F311880F9B1A
:10563000002B1FD1EFF311830693069BDBB28DF88D
:10564000173080230493049B83F311889DF817304F
:105650008DF837300E9B54330299184608F063FBDF
:105660009DF837308DF823309DF823300793079B42
:1056700083F311880F9B184611B05DF804FB0000FE
:1056800000B585B00190019B9B680293029B543347
:10569000184608F067FB002303930AE0039BDB0036
:1056A000084A134419460298FFF71EFF039B013373
:1056B0000393039B122BF1D90023184605B05DF824
:1056C00004FB00BFC8C4030800B587B00190204B9D
:1056D0001B680593019B002B02D1059BDB6801939E
:1056E0000198FFF76BFC0490049B002B02D16FF034
:1056F000020328E0059BDB8B03F00303022B08D099
:10570000049BDB8B03F00303022B02D16FF00C032D
:1057100019E0059BDA68019B9A4202D10020FEF74E
:1057200065F9049800F064F90346002B01D00023CA
:1057300009E0019800F099F90390039B002B01DA2E
:10574000039B00E00023184607B05DF804FB00BF90
:10575000380C002000B585B001900091019B9B683A
:105760000393039B002B23D0019BDB8B03F00303EC
:10577000012B08D0039B5B6A002B04D0039B5B6A60
:10578000009A12021A60039B5B7B012B10D1039BD2
:1057900000225A62039B00225A7504E0039B1833CF
:1057A000184600F0EFFE039B1B8B1BB2002BF5DBB2
:1057B00000BF05B05DF804FB00B583B00190009117
:1057C000019BDB8B03F40063002B14D1019800F0E4
:1057D00016F800990198FFF7BDFF0198FEF77BFFCF
:1057E0000198FFF7BFFD019BDB8B43F400639AB286
:1057F000019BDA8300E000BF03B05DF804FB00B555
:1058000083B00190019800F031FB019800F0AFF9EE
:10581000019800F048FF019800F0EEFA00BF03B0D5
:105820005DF804FB00B583B001900091009B9B687C
:105830001946019817F0EBF80346184603B05DF8D7
:1058400004FB00B583B001900091009B9968009B18
:10585000DB681A46019817F022F80346184603B091
:105860005DF804FB00B585B001900091002303931F
:10587000009B9B681946019817F0C9F8009B03F13B
:105880001401009BDA68009B1B69019817F092FFD6
:105890000290029B002B02DA029B039315E0009B0F
:1058A0009A68029B9A4210D0009B9B681A46029904
:1058B000019816F0F4FF0390039B002B01DB0023FB
:1058C00003930299019817F0A2F8039B184605B0BC
:1058D0005DF804FB00B585B001900091009B1B783A
:1058E00003F00403002B13D0009B5B780293009B12
:1058F0001B7803F00803002B1BD102AB194601985B
:1059000000F074FB0390039B002B12DA039B1FE053
:10591000009B1B7803F00803002B0AD002AB19464A
:105920000020FFF7F5FB0390039B002B01DA039B9C
:105930000EE0009B1B7803F00803002B07D0009BB0
:105940009B78194602AB1A46019800F0C0FC002370
:10595000184605B05DF804FB00B583B00190019BCB
:10596000002B0CD0019B1B7803F02003002B06D0EA
:10597000019B043300221946032001F0DBF800BF2D
:1059800003B05DF804FB00B585B0019000910023E1
:105990000293009B039320E0039B1B79022B09D009
:1059A000032B0DD0012B11D103990198FFF73AFF7A
:1059B00002900FE003990198FFF743FF029009E07E
:1059C00003990198FFF74EFF029003E06FF0150373
:1059D000029300BF039B1B680393039B002B02D021
:1059E000029B002BD8D0029B184605B05DF804FB43
:1059F0008AB0019000238DF82730EFF311830893CC
:105A0000089BDBB28DF81F3080230693069B83F33F
:105A100011889DF81F308DF82630019BDB8B03F039
:105A20000403002B12D0019BDB8B43F010039AB2CE
:105A3000019BDA839DF826308DF817309DF81730DA
:105A40000493049B83F3118801230BE09DF8263017
:105A50008DF80F309DF80F300293029B83F311886D
:105A60009DF8273018460AB0704700B58DB00190F8
:105A7000EFF311830893089BDBB28DF81F3080236E
:105A80000693069B83F311889DF81F308DF82F3005
:105A90000198FFF793FA0A900A9B002B0CD19DF80E
:105AA0002F308DF817309DF817300493049B83F343
:105AB00011886FF0020324E00A9B1B7F8DF82730CA
:105AC00000210A9800F012FA0A9B9DF827201A7705
:105AD0009DF82F308DF80F309DF80F300293029B08
